{
    "_format": "hh-sol-artifact-1",
    "contractName": "Lottery",
    "sourceName": "contracts/Lottery.sol",
    "abi": [
        {
            "inputs": [],
            "stateMutability": "nonpayable",
            "type": "constructor"
        },
        {
            "inputs": [],
            "name": "enter",
            "outputs": [],
            "stateMutability": "payable",
            "type": "function"
        },
        {
            "inputs": [],
            "name": "getBalance",
            "outputs": [
                {
                    "internalType": "uint256",
                    "name": "",
                    "type": "uint256"
                }
            ],
            "stateMutability": "view",
            "type": "function"
        },
        {
            "inputs": [],
            "name": "getPlayers",
            "outputs": [
                {
                    "internalType": "address payable[]",
                    "name": "",
                    "type": "address[]"
                }
            ],
            "stateMutability": "view",
            "type": "function"
        },
        {
            "inputs": [],
            "name": "getRandomNumber",
            "outputs": [
                {
                    "internalType": "bytes32",
                    "name": "requestId",
                    "type": "bytes32"
                }
            ],
            "stateMutability": "nonpayable",
            "type": "function"
        },
        {
            "inputs": [
                {
                    "internalType": "uint256",
                    "name": "lottery",
                    "type": "uint256"
                }
            ],
            "name": "getWinnerByLottery",
            "outputs": [
                {
                    "internalType": "address payable",
                    "name": "",
                    "type": "address"
                }
            ],
            "stateMutability": "view",
            "type": "function"
        },
        {
            "inputs": [
                {
                    "internalType": "uint256",
                    "name": "",
                    "type": "uint256"
                }
            ],
            "name": "lotteryHistory",
            "outputs": [
                {
                    "internalType": "address payable",
                    "name": "",
                    "type": "address"
                }
            ],
            "stateMutability": "view",
            "type": "function"
        },
        {
            "inputs": [],
            "name": "lotteryId",
            "outputs": [
                {
                    "internalType": "uint256",
                    "name": "",
                    "type": "uint256"
                }
            ],
            "stateMutability": "view",
            "type": "function"
        },
        {
            "inputs": [],
            "name": "owner",
            "outputs": [
                {
                    "internalType": "address",
                    "name": "",
                    "type": "address"
                }
            ],
            "stateMutability": "view",
            "type": "function"
        },
        {
            "inputs": [],
            "name": "payWinner",
            "outputs": [],
            "stateMutability": "nonpayable",
            "type": "function"
        },
        {
            "inputs": [],
            "name": "pickWinner",
            "outputs": [],
            "stateMutability": "nonpayable",
            "type": "function"
        },
        {
            "inputs": [
                {
                    "internalType": "uint256",
                    "name": "",
                    "type": "uint256"
                }
            ],
            "name": "players",
            "outputs": [
                {
                    "internalType": "address payable",
                    "name": "",
                    "type": "address"
                }
            ],
            "stateMutability": "view",
            "type": "function"
        },
        {
            "inputs": [],
            "name": "randomResult",
            "outputs": [
                {
                    "internalType": "uint256",
                    "name": "",
                    "type": "uint256"
                }
            ],
            "stateMutability": "view",
            "type": "function"
        },
        {
            "inputs": [
                {
                    "internalType": "bytes32",
                    "name": "requestId",
                    "type": "bytes32"
                },
                {
                    "internalType": "uint256",
                    "name": "randomness",
                    "type": "uint256"
                }
            ],
            "name": "rawFulfillRandomness",
            "outputs": [],
            "stateMutability": "nonpayable",
            "type": "function"
        }
    ],
    "bytecode": "0x60c060405234801561001057600080fd5b5073b3dccb4cf7a26f6cf6b120cf5a73875b7bbc655b7301be23585060835e02b77ef475b0cc51aa1e07098173ffffffffffffffffffffffffffffffffffffffff1660a08173ffffffffffffffffffffffffffffffffffffffff1660601b815250508073ffffffffffffffffffffffffffffffffffffffff1660808173ffffffffffffffffffffffffffffffffffffffff1660601b8152505050507f2ed0feb3e7fd2022120aa84fab1945545a9f2ffc9076fd6156fa96eaff4c131160001b60058190555067016345785d8a000060068190555033600160006101000a81548173ffffffffffffffffffffffffffffffffffffffff021916908373ffffffffffffffffffffffffffffffffffffffff160217905550600160038190555060805160601c60a05160601c6113db6101666000396000818161047a01526109d80152600081816107d5015261099c01526113db6000f3fe6080604052600436106100c25760003560e01c80638da5cb5b1161007f578063dbdff2c111610059578063dbdff2c114610244578063e580f47b1461026f578063e97dcb621461029a578063f71d96cb146102a4576100c2565b80638da5cb5b146101d957806394985ddd14610204578063be71248a1461022d576100c2565b806312065fe0146100c7578063281d098d146100f257806342619f661461012f5780635d495aea1461015a5780636d6fe230146101715780638b5b9ccc146101ae575b600080fd5b3480156100d357600080fd5b506100dc6102e1565b6040516100e99190611054565b60405180910390f35b3480156100fe57600080fd5b5061011960048036038101906101149190610cc6565b6102e9565b6040516101269190610ef0565b60405180910390f35b34801561013b57600080fd5b50610144610326565b6040516101519190611054565b60405180910390f35b34801561016657600080fd5b5061016f61032c565b005b34801561017d57600080fd5b5061019860048036038101906101939190610cc6565b610391565b6040516101a59190610ef0565b60405180910390f35b3480156101ba57600080fd5b506101c36103c4565b6040516101d09190610f49565b60405180910390f35b3480156101e557600080fd5b506101ee610452565b6040516101fb9190610ed5565b60405180910390f35b34801561021057600080fd5b5061022b60048036038101906102269190610c8a565b610478565b005b34801561023957600080fd5b50610242610514565b005b34801561025057600080fd5b506102596107ce565b6040516102669190610f6b565b60405180910390f35b34801561027b57600080fd5b506102846108d0565b6040516102919190611054565b60405180910390f35b6102a26108d6565b005b3480156102b057600080fd5b506102cb60048036038101906102c69190610cc6565b61094e565b6040516102d89190610ef0565b60405180910390f35b600047905090565b60006004600083815260200190815260200160002060009054906101000a900473ffffffffffffffffffffffffffffffffffffffff169050919050565b60075481565b600160009054906101000a900473ffffffffffffffffffffffffffffffffffffffff1673ffffffffffffffffffffffffffffffffffffffff163373ffffffffffffffffffffffffffffffffffffffff161461038657600080fd5b61038e6107ce565b50565b60046020528060005260406000206000915054906101000a900473ffffffffffffffffffffffffffffffffffffffff1681565b6060600280548060200260200160405190810160405280929190818152602001828054801561044857602002820191906000526020600020905b8160009054906101000a900473ffffffffffffffffffffffffffffffffffffffff1673ffffffffffffffffffffffffffffffffffffffff16815260200190600101908083116103fe575b5050505050905090565b600160009054906101000a900473ffffffffffffffffffffffffffffffffffffffff1681565b7f000000000000000000000000000000000000000000000000000000000000000073ffffffffffffffffffffffffffffffffffffffff163373ffffffffffffffffffffffffffffffffffffffff1614610506576040517f08c379a00000000000000000000000000000000000000000000000000000000081526004016104fd90611014565b60405180910390fd5b610510828261098d565b5050565b600160009054906101000a900473ffffffffffffffffffffffffffffffffffffffff1673ffffffffffffffffffffffffffffffffffffffff163373ffffffffffffffffffffffffffffffffffffffff161461056e57600080fd5b6000600754116105b3576040517f08c379a00000000000000000000000000000000000000000000000000000000081526004016105aa90611034565b60405180910390fd5b60006002805490506007546105c8919061121f565b905060028181548110610604577f4e487b7100000000000000000000000000000000000000000000000000000000600052603260045260246000fd5b9060005260206000200160009054906101000a900473ffffffffffffffffffffffffffffffffffffffff1673ffffffffffffffffffffffffffffffffffffffff166108fc479081150290604051600060405180830381858888f19350505050158015610674573d6000803e3d6000fd5b50600281815481106106af577f4e487b7100000000000000000000000000000000000000000000000000000000600052603260045260246000fd5b9060005260206000200160009054906101000a900473ffffffffffffffffffffffffffffffffffffffff1660046000600354815260200190815260200160002060006101000a81548173ffffffffffffffffffffffffffffffffffffffff021916908373ffffffffffffffffffffffffffffffffffffffff16021790555060036000815480929190610740906111c2565b9190505550600067ffffffffffffffff811115610786577f4e487b7100000000000000000000000000000000000000000000000000000000600052604160045260246000fd5b6040519080825280602002602001820160405280156107b45781602001602082028036833780820191505090505b50600290805190602001906107ca929190610b66565b5050565b60006006547f000000000000000000000000000000000000000000000000000000000000000073ffffffffffffffffffffffffffffffffffffffff166370a08231306040518263ffffffff1660e01b815260040161082c9190610ed5565b60206040518083038186803b15801561084457600080fd5b505afa158015610858573d6000803e3d6000fd5b505050506040513d601f19601f8201168201806040525081019061087c9190610cef565b10156108bd576040517f08c379a00000000000000000000000000000000000000000000000000000000081526004016108b490610ff4565b60405180910390fd5b6108cb600554600654610998565b905090565b60035481565b662386f26fc1000034116108e957600080fd5b6002339080600181540180825580915050600190039060005260206000200160009091909190916101000a81548173ffffffffffffffffffffffffffffffffffffffff021916908373ffffffffffffffffffffffffffffffffffffffff160217905550565b6002818154811061095e57600080fd5b906000526020600020016000915054906101000a900473ffffffffffffffffffffffffffffffffffffffff1681565b806007819055505050565b60007f000000000000000000000000000000000000000000000000000000000000000073ffffffffffffffffffffffffffffffffffffffff16634000aea07f000000000000000000000000000000000000000000000000000000000000000084866000604051602001610a0c929190610f86565b6040516020818303038152906040526040518463ffffffff1660e01b8152600401610a3993929190610f0b565b602060405180830381600087803b158015610a5357600080fd5b505af1158015610a67573d6000803e3d6000fd5b505050506040513d601f19601f82011682018060405250810190610a8b9190610c61565b506000610aad8460003060008089815260200190815260200160002054610af7565b9050600160008086815260200190815260200160002054610ace91906110d5565b60008086815260200190815260200160002081905550610aee8482610b33565b91505092915050565b600084848484604051602001610b109493929190610faf565b6040516020818303038152906040528051906020012060001c9050949350505050565b60008282604051602001610b48929190610ea9565b60405160208183030381529060405280519060200120905092915050565b828054828255906000526020600020908101928215610bdf579160200282015b82811115610bde5782518260006101000a81548173ffffffffffffffffffffffffffffffffffffffff021916908373ffffffffffffffffffffffffffffffffffffffff16021790555091602001919060010190610b86565b5b509050610bec9190610bf0565b5090565b5b80821115610c09576000816000905550600101610bf1565b5090565b600081519050610c1c81611360565b92915050565b600081359050610c3181611377565b92915050565b600081359050610c468161138e565b92915050565b600081519050610c5b8161138e565b92915050565b600060208284031215610c7357600080fd5b6000610c8184828501610c0d565b91505092915050565b60008060408385031215610c9d57600080fd5b6000610cab85828601610c22565b9250506020610cbc85828601610c37565b9150509250929050565b600060208284031215610cd857600080fd5b6000610ce684828501610c37565b91505092915050565b600060208284031215610d0157600080fd5b6000610d0f84828501610c4c565b91505092915050565b6000610d248383610d30565b60208301905092915050565b610d398161113d565b82525050565b610d488161113d565b82525050565b610d578161112b565b82525050565b6000610d688261107f565b610d7281856110a2565b9350610d7d8361106f565b8060005b83811015610dae578151610d958882610d18565b9750610da083611095565b925050600181019050610d81565b5085935050505092915050565b610dc48161115b565b82525050565b610ddb610dd68261115b565b61120b565b82525050565b6000610dec8261108a565b610df681856110b3565b9350610e0681856020860161118f565b610e0f816112ae565b840191505092915050565b6000610e27601b836110c4565b9150610e32826112bf565b602082019050919050565b6000610e4a601f836110c4565b9150610e55826112e8565b602082019050919050565b6000610e6d6037836110c4565b9150610e7882611311565b604082019050919050565b610e8c81611185565b82525050565b610ea3610e9e82611185565b611215565b82525050565b6000610eb58285610dca565b602082019150610ec58284610e92565b6020820191508190509392505050565b6000602082019050610eea6000830184610d4e565b92915050565b6000602082019050610f056000830184610d3f565b92915050565b6000606082019050610f206000830186610d4e565b610f2d6020830185610e83565b8181036040830152610f3f8184610de1565b9050949350505050565b60006020820190508181036000830152610f638184610d5d565b905092915050565b6000602082019050610f806000830184610dbb565b92915050565b6000604082019050610f9b6000830185610dbb565b610fa86020830184610e83565b9392505050565b6000608082019050610fc46000830187610dbb565b610fd16020830186610e83565b610fde6040830185610d4e565b610feb6060830184610e83565b95945050505050565b6000602082019050818103600083015261100d81610e1a565b9050919050565b6000602082019050818103600083015261102d81610e3d565b9050919050565b6000602082019050818103600083015261104d81610e60565b9050919050565b60006020820190506110696000830184610e83565b92915050565b6000819050602082019050919050565b600081519050919050565b600081519050919050565b6000602082019050919050565b600082825260208201905092915050565b600082825260208201905092915050565b600082825260208201905092915050565b60006110e082611185565b91506110eb83611185565b9250827fffffffffffffffffffffffffffffffffffffffffffffffffffffffffffffffff038211156111205761111f611250565b5b828201905092915050565b600061113682611165565b9050919050565b600061114882611165565b9050919050565b60008115159050919050565b6000819050919050565b600073ffffffffffffffffffffffffffffffffffffffff82169050919050565b6000819050919050565b60005b838110156111ad578082015181840152602081019050611192565b838111156111bc576000848401525b50505050565b60006111cd82611185565b91507fffffffffffffffffffffffffffffffffffffffffffffffffffffffffffffffff821415611200576111ff611250565b5b600182019050919050565b6000819050919050565b6000819050919050565b600061122a82611185565b915061123583611185565b9250826112455761124461127f565b5b828206905092915050565b7f4e487b7100000000000000000000000000000000000000000000000000000000600052601160045260246000fd5b7f4e487b7100000000000000000000000000000000000000000000000000000000600052601260045260246000fd5b6000601f19601f8301169050919050565b7f4e6f7420656e6f756768204c494e4b20696e20636f6e74726163740000000000600082015250565b7f4f6e6c7920565246436f6f7264696e61746f722063616e2066756c66696c6c00600082015250565b7f4d7573742068617665206120736f75726365206f662072616e646f6d6e65737360008201527f206265666f72652063686f6f73696e672077696e6e6572000000000000000000602082015250565b6113698161114f565b811461137457600080fd5b50565b6113808161115b565b811461138b57600080fd5b50565b61139781611185565b81146113a257600080fd5b5056fea2646970667358221220ef6faffc8355416665ab15b56defea5ab9ded14bb5adea3fa2904aa6d3cf0d7d64736f6c63430008040033",
    "linkReferences": {},
    "deployedLinkReferences": {}
}